:020000040800F2
:100000001009002071010008FD3100081B2B0008B9
:1000100000000000000000000000000000000000E0
:100020000000000000000000000000003135000862
:1000300000000000000000003532000833350008E1
:10004000830100080000000083010008830100080C
:100050008301000883010008830100088301000870
:100060000000000083010008291400088301000833
:1000700083010008830100088301000800000000DC
:100080008301000801360008000000008301000819
:100090008301000883010008830100088301000830
:1000A000830100088301000883010008C13C0008A7
:1000B0008301000800F002F800F04AF80CA030C8F4
:1000C000083824182D18A246671EAB4654465D46D4
:1000D000AC4201D100F03CF87E460F3E0FCCB64654
:1000E0000126334200D0FB1AA246AB4633431847E1
:1000F000A4B70000C4B70000103A02D378C878C192
:10010000FAD8520701D330C830C101D504680C6059
:10011000704700000023002400250026103A01D378
:1001200078C1FBD8520700D330C100D50B607047AF
:1001300010B5642902D100F06BF910BD002010BD8C
:100140001FB50098019900F0D6FF1FBD10B510BD76
:1001500001F0B5F81146FFF7F3FF03F073FF01F06C
:10016000CDF803B4FFF7F2FF03BC01F0FDF8000087
:100170000748804707480047FEE7FEE7FEE7FEE73F
:10018000FEE7FEE704480549054A064B70470000B4
:10019000AF350008B500000810030020100900204A
:1001A000100500201005002070B5064600F086FFFF
:1001B000056830460B30C408E400B44201D8002082
:1001C00070BD68682A46002818D00168A14211D382
:1001D0000B46214608318B4208D3436801194B6016
:1001E00003681B1B0B605160046001E041685160B3
:1001F000001D70BD024640680028E6D12146284611
:1002000000F064FF0028DCD170BD70B50446051F06
:1002100000F054FF0068002C1AD0446801E020462A
:100220006468002C01D0AC42F9D301680A18AA42D4
:1002300004D12A6805468918016000E045602868F5
:100240004119A14205D161686960216840182860A0
:1002500070BD6C6070BD10B5202A04DB0846203AE2
:10026000D040002110BD0B462024D340D040A21A1C
:1002700091400843194610BDFEB5054610460C4690
:10028000184373D0AE468C460020AD1A01469C41FF
:1002900067D36646002701243D46B61A9D4102D326
:1002A00013463A462124654676462F04360C3E43D3
:1002B0002D0CB61A9D4104D3150C1B042B431204BC
:1002C0001034654676462F06360A3E432D0AB61A86
:1002D0009D4104D3150E1B022B43120208346546C0
:1002E00076462F0736093E432D09B61A9D4104D3A1
:1002F000150F1B012B431201241D65467646AF07DF
:10030000B6083E43AD08B61A9D4104D3950F9B0035
:100310002B439200A41C65467646EF0776083E43C1
:100320006D08B61A9D411AD392185B41641C16E001
:100330000018764665464941B71A9D4101910090E3
:1003400009D36046B11A98418E46844600980199B7
:100350000025401C6941DD0752082A435B08641EE2
:10036000E6D57246634603B0F0BDFFE700200146C4
:10037000C046C0462A462346F5E700000FB41CB528
:10038000074B06AA7B4469460090059800F045FF9C
:100390000020694600F054FF1CBC08BC04B018479C
:1003A000B90E0000F8B50E46044600202062204633
:1003B000E1688847002829D0252802D06268A16812
:1003C00020E0E16820460027884705001ED0284627
:1003D0004138192802D80127FF022035324620462D
:1003E00027602946FFF7A4FE002808D0012804D082
:1003F000F61DF608F6000836D9E7361DD7E762681D
:100400002846A1689047206A401CCFE7206AF8BDC3
:10041000F7B5002575291068009914A611D0C046BB
:10042000C046002802DA404211A608E00099096897
:100430008A0701D50FA602E0490704D50EA60125BB
:1004400001E0C046C046009F0024243704E000F0CD
:10045000FCFE30313955641C0028F8D12B46324659
:100460002146009800F07BFEFEBD00000000000069
:100470002D0000002B00000020000000421E5378D9
:10048000521C002BFBD10B78491C1370521C002B03
:10049000F9D1704701E004C0091F0429FBD28B0782
:1004A00001D50280801CC90700D002707047002966
:1004B0000BD0C30702D00270401C491E022904D38E
:1004C000830702D50280801C891EE3E70022EEE745
:1004D0000022DFE7002203098B422CD3030A8B4260
:1004E00011D300239C464EE003460B433CD400222C
:1004F00043088B4231D303098B421CD3030A8B423E
:1005000001D394463FE0C3098B4201D3CB01C01A0B
:10051000524183098B4201D38B01C01A52414309D6
:100520008B4201D34B01C01A524103098B4201D3C4
:100530000B01C01A5241C3088B4201D3CB00C01A31
:10054000524183088B4201D38B00C01A52414308A9
:100550008B4201D34B00C01A5241411A00D20146CE
:100560005241104670475DE0CA0F00D04942031067
:1005700000D34042534000229C4603098B422DD3B6
:10058000030A8B4212D3FC22890112BA030A8B425E
:100590000CD3890192118B4208D3890192118B42AD
:1005A00004D389013AD0921100E08909C3098B4232
:1005B00001D3CB01C01A524183098B4201D38B0175
:1005C000C01A524143098B4201D34B01C01A524118
:1005D00003098B4201D30B01C01A5241C3088B425D
:1005E00001D3CB00C01A524183088B4201D38B0048
:1005F000C01A5241D9D243088B4201D34B00C01AD2
:100600005241411A00D20146634652415B101046E6
:1006100001D34042002B00D54942704763465B102E
:1006200000D3404201B50020C046C04602BD70471D
:1006300070477047F0B50C46871A9C410D46861AE4
:100640009D4103D2C01BA141D21963410D0D1F0D65
:10065000C94EEC1BAE435CD07F057F0D0026002FFA
:1006600051D02D05AC46A943DD020123ED0A1B053F
:100670001D4320231B1B24D41746E7403818714123
:100680002F46E740CC199D402818314661410C0D9A
:1006900027D161449A4013D50023401C5941520090
:1006A0000ED14008400001224B005205D34207D32F
:1006B00005204007C14201D5B04900E0B0493046AD
:1006C000F0BD6B00002A00D001229A181F23203CA5
:1006D0001B1B01D5002302E0E540281871410C0DD9
:1006E000D7D0012424050919C407CD0740084908BB
:1006F000E40F28436144002CD5D00024401C614104
:100700009A40D0D1CDE76A05520DD9D1C90FC9079A
:10071000D5E79C4D4E00002801D0012400E00024C4
:1007200034195F00002A01D0012600E00026BE191E
:10073000954FAC420CD8AE420AD8B44206D001253F
:100740006D05EC42BCD010461946F0BD9942FCD074
:1007500000203946F0BDF0B51FB40C460F46811A93
:100760009F412546861A9D4106D20125ED076F401F
:10077000401ABC4152187B41210D1E0D8D1BAC4609
:100780007D4D8D437ED075056D0D7CD00D05AE463B
:10079000AC431B031B0B794D52429D4120236646FF
:1007A0009B1B14D31746F74038180026009074415D
:1007B00060462F460741E41900989D40281866417D
:1007C00016D4714671189A4025D5012320E093185C
:1007D0002A466A415200002B00D0521C1E23203EA4
:1007E0009B1B002B61DD3541EE1728186641E8D5CB
:1007F000001876415B1C9A4000D3401C4B05F3184F
:100800001524E34010D3002B52D071467118D30F3A
:10081000C01802D3491C05B0F0BD0123DB079A4282
:10082000F9D140084000F6E701225205B21801D183
:10083000002853D00123CC0ADB029943891E002AE9
:1008400008D1020C03D0020C0004103902E0024669
:10085000002020390023550B05D112020823550B27
:1008600001D152010D23550C01D112011B1DD50CD4
:1008700001D192009B1C150D01D152005B1C20255B
:10088000EE1A01E02CE022E00546F54015439840C1
:10089000CA1AE10769181305C918002ABBDA032030
:1008A00040070818C10FC9070FE071466118B2E789
:1008B000F10740080843711071444A000CD001232D
:1008C0005B059A42A7D2C90FC9070020A3E74905D3
:1008D000490D26D1002001E00028F4D100219AE73B
:1008E000284D6600002801D0012100E00021711888
:1008F0005F00002A01D0012600E00026BE19224F29
:10090000A94210D8AE420ED8B14208D001256D05DB
:10091000E94206D01946A802414010467BE79C42B6
:1009200001D0214677E70020394674E710B50C4620
:100930005C4005D50124E4076340FFF70CFF10BDC0
:10094000FFF778FE10BD30B40C465C4004D501249E
:10095000E407634030BC6DE630BCFCE670B50124B2
:10096000E40761400D465D4002D4FFF763FE70BDB1
:100970006340FFF7F0FE70BDFF0700000000F0FFCE
:100980000000F07F0000E0FF0000F87FF0B5F94DB7
:100990000C091E092C402E402F468BB0A7437DD05A
:1009A000B543FCD0002E7AD0002CFCD00D465D4023
:1009B000ED0F2543AC1BFF25AD0464190894C50257
:1009C000440DC9022143500DDC0204430120C0073D
:1009D00001430443D2020191200C110C00958C4676
:1009E000010423468B430A9161460904E24D8A4380
:1009F0000991010A7D4449198039097805464D431A
:100A000001266D18F605751B6943C90C640B891C1A
:100A10004C436418B5012C1B250C2E04B4434C43E5
:100A20004D43210C691889090591009DE90701D002
:100A30000121C90704912C4601996708CD072F436E
:100A40004C08059DE10B4D432D0C29466646754328
:100A500002950D4645432E46029D7D1BB4410095EF
:100A60000D465D4301942C0C2F040D465543AE46B4
:100A70002D0C3D43029503947546049C2D04641B84
:100A8000049406D2029C039D641C002675410395C4
:100A9000029401AC70CC009F7D1B01E03EE162E15D
:100AA000B44109040095079101940599A408614394
:100AB000090C0C464443650BE7040C466646744338
:100AC000A646640B3C43039502947446049DE404DB
:100AD0002C1B049406D2029C039D641C00267541C5
:100AE0000395029401AC70CC009F7D1BB44101942E
:100AF0000C465C430095650FE7000C465443A64640
:100B0000640F3C43039502947446049DE4002C1B3F
:100B1000049406D2029C039D641C00267541039533
:100B2000029401AC70CC009F7D1BB441AE09AF06AE
:100B3000049DC900AD092F43049DA406AD0604958C
:100B4000079D344369180791059DE10B4D432D0C1A
:100B500029466646754302950D4645432E46029D3D
:100B60007D1BB44100950D465D4301942C0C2F0470
:100B70000D465543AE462D0C3D43029503947546F4
:100B8000049C2D04641B049406D2029C039D641CE7
:100B9000002675410395029401AC70CC009F7D1B2B
:100BA000B44101948C050694079C890A611800954C
:100BB0000791019C0599A4086143090C0D46454322
:100BC000680BEF040D46644665436C0B3C43049F81
:100BD000ED047D1BAC4602D20025641C6841009EDA
:100BE000019D371B85410846584301950C46460F29
:100BF000C5005443600F28436546E4002C1B02D215
:100C00000025401C6E41019D3F1AB5412846BD0993
:100C1000800628438446A009BF064E020699A40612
:100C200076180743079D002068410A9907901943E9
:100C30000020099B00906046FF1913434041E20FDA
:100C400064003A43A4460446D71A8C41A04203D913
:100C50000120009020463A46C70F94184041624652
:100C6000D20F2243644664000494009CBE46640094
:100C7000D71AA446044602978C417746002F01D12B
:100C8000A04204D96046401C8446029A2046C40F04
:100C9000A64694184041049A0546D20F2243644662
:100CA0006400D31A8D417146002901D1A84202D9AE
:100CB00028461A46641C10430122002800D016431F
:100CC00061020020079B891904465C410223002C25
:100CD00002DB491813466441089DCE0A2D145D19A4
:100CE0004B056705E10A2C050D1908993E43C90714
:100CF0006940002B08D0934006D30022761C514156
:100D0000002B01D1760876001C4A002D43DB1542EA
:100D100041D0AA433FD030460BB0F0BD06180D4677
:100D20004D41174C7642AC411AD395181C465C4194
:100D3000134A6D42A24113D3012252054C00D44202
:100D40000AD15C00D4420BD04B4002D59202114331
:100D5000E2E749004908DFE75940C90FC90718E031
:100D600000200849D8E7054801420DD10342F7D0D9
:100D7000F2E700000000FF071AAE00000000F07F5D
:100D80000000E0FF0000F87F114859400143C01205
:100D900041400020C0E70123089A9B069A4205DCE7
:100DA000032252078918C90FC907B5E70522520760
:100DB0008918074A1143D2125140ADE770B5154664
:100DC0001C4602460B4628462146FFF7DFFD70BD54
:100DD000FFFFFF7F0346CA02400D10B510430A15FE
:100DE00004D00124E4072043002A05DB0A4CA21AA0
:100DF00004D4D040FF2A00DD002010BD4A00002BA3
:100E000001D0012000E00020101801225205D0423C
:100E1000F2D8C817C04310BD1E0400001F22030CE7
:100E200002D10F22000402D0030E03D004E0002000
:100E3000014670470002083A030F01D10001121F5A
:100E4000830F01D18000921E002801DB4000521E5A
:100E5000120551184205C012411810467047C10FC3
:100E6000C90700D04042012292071143D6E7012171
:100E70008907D3E7F0B58B4C0F09254689B0BD43F0
:100E80007BD01D092646AE43FAD00E465E40274071
:100E9000F60F3E43254071D024012142FBD0FF24B0
:100EA000AD19A4042D1B039501252D05DB02DB0ADA
:100EB000C9022B43C90A29431E010901040F130F5C
:100EC000050121431701880B820391432D098C46AC
:100ED000A90B1E438A039543B30B9A0396433F091C
:100EE000BA0B9403A74302962E467E430497B64658
:100EF0004E19D7190C460196544305977E43371B6C
:100F00007646BF1B3601B646BE0B361900967646AE
:100F1000BC043719009C01D3641C00946400002FAA
:100F200001D001263443029E049F754366467E43EA
:100F30000496760034196E0034190094029C019EC8
:100F40001C196643751BAE46069465464519059CFB
:100F500005956C43594375460891691A0191049EA1
:100F600001465143A41B0491611A009C0791E106BC
:100F700005D061090122114302E072E06EE06109CF
:100F8000089D00272C0A2D066918049D7C412A0A19
:100F90002D066918019D6241AC0DAD026D185441DA
:100FA000079A910D920255196141029A644658437D
:100FB0005443069B059A5A43121A131B9A0E9B011F
:100FC0005B187A41010B0005C3185141220A200623
:100FD00044195A419A4200D2491C012040028142E0
:100FE00003D315230226F64302E014230326F64317
:100FF0002020C51AA9401746AF40DA400A432046D0
:101000000399D8400914731819055118039A3843E5
:10101000D2075140AC4009D00122944006D30022AF
:10102000401C5141002C01D1400840001E4A93420F
:1010300012D3012203989206904207DB0520400755
:1010400009181A480143C012414004E00320400738
:101050000818C10FC907002009B0F0BD0020F10732
:10106000FAE705180C464C4111486D42A04115D3D2
:1010700094181A465A410E48644290410ED30120FA
:101080004A004005824209D35A00824206D35940A1
:10109000C90F084AC90700201143DDE700200649AF
:1010A000DAE700000000FF07FE070000FFFFFF7FF8
:1010B0000000E0FF0000F07F0000F87F004870476C
:1010C000B8020020704770477047704738B5044633
:1010D0000A4600206946C046C046002805D00246A0
:1010E0002046009900F0CAF8012038BD10B5012053
:1010F00000F0DEF810BDF8B5C046C0460546002039
:101100000C461020C0460646A819A0420DD932460A
:1011100069460020C046C046070001D100F0C8F86B
:101120000098A04200D00546C419FFF7C7FFF61D7E
:1011300007460560F008C0004619284600F008F888
:10114000B44204D031463868A21B00F097F8F8BDCD
:101150000021016041608060704710207047FFB53A
:1011600004460D4681B0243000902168880604D5DD
:101170001022E0699143216000E00120A84201DDD6
:10118000471B00E000270498A1697A191018081A73
:10119000A0612078C00602D42046C046C046002682
:1011A00008E003986268A168805D9047206A401C4F
:1011B000761C206204988642F3DB2078C0060AD5AC
:1011C0002046C046C04606E06268A16830209047CD
:1011D000206A401C206238467F1E0028F4DC07E0AD
:1011E00000986268A168405D9047206A401C2062B8
:1011F00028466D1E0028F3DC2046C046C0462078F5
:10120000000602D5022005B0F0BD0120FBE700007A
:1012100001694A1C02610878704700B58FB00291DD
:1012200000210591054901937944039111460490E9
:101230006846FFF7B7F80FB000BD0000E5FFFFFFFD
:101240000A681070521C0A60704701468008081A2C
:1012500002091018020A1018020C1018C0088200A7
:1012600012185200891A01E0401C0A390A29FBD2DF
:101270007047000000487047B002002010B50346D8
:10128000406801E003464068002801D08842F9D355
:101290001868C3188B4206D0CB1CD808C000001DAC
:1012A000411A521A0146081D0A60FEF7AEFF10BD32
:1012B00010B500F031F800F029F810BD7047754600
:1012C000FFF7D8FFAE46050069465346C008C00088
:1012D000854618B020B5FEF755FF60BC00274908C9
:1012E000B6460026C0C5C0C5C0C5C0C5C0C5C0C5BE
:1012F000C0C5C0C5403D49008D46704710B5044685
:10130000C046C0462046FEF72CFF10BD10B5002891
:1013100001D000F029F810BD10B5012805D000213A
:1013200003A000F027F8012010BD09A1F8E7000094
:1013300053494752544D454D3A204F7574206F66BE
:101340002068656170206D656D6F72790000000026
:101350003A2048656170206D656D6F727920636F0A
:10136000727275707465640001491820ABBEFEE7A7
:101370002600020070B505460C460A2000E06D1CF0
:1013800000F012F8002D06D028780028F7D102E0EE
:10139000641C00F009F8002C02D020780028F7D156
:1013A0000A2000F001F870BD08B5694608700320F6
:1013B000ABBE08BDF0B500230C4E13E01488C55C2D
:1013C0006C40148000241588EF076D08FF0F15800E
:1013D000002F01D075401580641CA4B2082CF2D3F4
:1013E0005B1C9BB28B42E9D3F0BD000001A0000062
:1013F00018B50022D2436B461A80022911D3421835
:101400001E3A537F147F1A02224354BA891E89B2AE
:101410006A46FFF7CFFF68460088844201D1012069
:1014200018BD002018BD000010B5024800F000F9FA
:1014300010BD00007001002010B504460068054989
:1014400040181421FFF746F8800020640248E0634A
:1014500010BD0000F8FFFDBF0000024030B5056C74
:101460000124AC40C56B6C60046863604368102B5A
:10147000036803D099600068C26030BD9A6000685C
:10148000C16030BD72B6FEE706490020C86106485B
:101490000169042211430161016940221143016184
:1014A000704700009002002000200240064A002100
:1014B000D16106490A6902231A430A614861086931
:1014C0004022104308617047900200200020024033
:1014D00010B5054B0022DA61044A13690124234345
:1014E0001361018010BD0000900200200020024026
:1014F00010B50B4A0020D168CB060A4904D5C8694B
:1015000002231843C8611020D3685B0705D5CB6957
:1015100001242343CB6104210843D06010BD0000A7
:10152000002002409002002070B5054600F0CAFA83
:101530000646104C0AE0681C08D0002D04D000F0CC
:10154000C1FA801BA84201D9032070BDE068C00722
:10155000F1D1E068800601D52020E060E068C00697
:1015600002D4E068400703D5FFF7C2FF012070BD39
:10157000002070BD0020024010B508480021016025
:101580000749416001218160064900F011F90028F6
:1015900003D000F05DF9FFF775FF10BD8402002055
:1015A00000FC00086000002030B5014620314B7877
:1015B0000022022B04D0042383630A70012030BD73
:1015C00003681C680E25AC431C6003681C68640833
:1015D00064001C600123056C1C46C06BAC40446079
:1015E0004B700A70002030BD70B5002401462031D8
:1015F0004A78022A03D004218163012416E002689C
:1016000013680E25AB431360026813685B085B0028
:1016100013600122056C1346AB40C56B6B604A70CA
:1016200000220A70416B002900D08847204670BD17
:10163000F0B4C16B0D6801680C680422066C134697
:10164000B3402B420DD063070BD50B689B0602D429
:101650000B6893430B60016C8A40C16B4A60C16A9E
:1016600019E00227B74002462F4001232032002F05
:1016700015D0A70713D50C68A40604D40C680A2556
:10168000AC430C605370036C02219940C36B5960EA
:1016900000211170816A002916D0F0BC0847082784
:1016A000B7402F4210D024070ED50C680E25AC434E
:1016B0000C60046C1946A140C46B61608363537075
:1016C00000211170016BE6E7F0BC704770B50400B3
:1016D00021D0022120462030054641702268116841
:1016E0000E48A3680140606826691843E3683343E5
:1016F000184363691843A3691843E369184308430F
:1017000010602046FFF798FE0021A1630120687059
:101710002970084670BD012070BD00000FC0FFFF9A
:10172000F8B504468C46203001780025012909D0FF
:101730000126067041780027012905D0077002258F
:101740002846F8BD0220F8BD02214170A763206839
:10175000016849084900016061462046FFF77EFEA6
:10176000E06A00282068016802D00E22114306E0DA
:101770000A2211430160206801680422914301603C
:101780002068016831430160DAE7000070B5044663
:1017900000F098F90546601C02D00448007824182F
:1017A00000F090F9401BA042FAD370BD6400002005
:1017B000F8B5054623480F46017E012601290BD0C6
:1017C000012101762868204C012807D02046FFF728
:1017D000ABFE002813D030E00220F8BD2046FFF712
:1017E000A3FE002829D1FFF74FFE2046FFF79CFEFD
:1017F0000646164801690422914301611DE000205C
:10180000C04338606C6812E02046FFF74FFE0E4878
:10181000FFF78AFE06460D48026902218A430261EB
:10182000002E01D03C6008E0012080022418A86846
:10183000810268680818A042E6D8024800210176B3
:101840003046F8BD9002002050C300000020024046
:1018500003480169802211430161002070470000A4
:1018600000200240F0B51FB407461A480024017E4C
:1018700015461E46012907D0012101761648FFF7BB
:1018800053FE002803D020E0022005B0F0BD012F58
:1018900002D0022F00D00427220128463146FEF74D
:1018A000DAFC81B2019862001018FFF711FE0A48B5
:1018B000FFF73AFE09490A69520852000A610028F6
:1018C00003D1641CE4B2BC42E6D3024900220A768A
:1018D000DBE700009002002050C30000002002401F
:1018E000064900200A69120607D5054A4A60054ADA
:1018F0004A600969090600D50120704700200240AE
:1019000023016745AB89EFCDF8B5002303240125FA
:10191000BAE02E469E40B44632407CD00E79B607DF
:10192000B60F012E01D0022E17D186682746B64683
:101930005E00B74000967646BE43B646CF68009E2E
:10194000B74076463743876046686746BE430F799F
:10195000FF06FF0F9F40374347600E79F643B607F7
:101960000ED0C6682746B4465E00B646B740664607
:10197000BE43B4468F687646B74066463743C76075
:101980000E79B607B60F022E14D1DE08B60036184F
:101990000096366A5F07B446FE0E0F27B646B7407C
:1019A0006646BE43B4460F697646B740664637433F
:1019B000009E376206682746B4465E00B646B740CA
:1019C0006646BE430F79B446BF07BF0F7646B740A1
:1019D0006646374307604E68B603B60F53D02D4FA7
:1019E000BE692E43BE61BE699F08F607F60F2A4EF8
:1019F000BF00BE190096B6680F27B4469E07360F83
:101A0000B646B7406646BE430927FF06B446B8420D
:101A100002D1002710E036E0204FB84201D1012763
:101A20000AE01F4FB84201D1022705E01D4FB8421E
:101A300001D1032700E005277646B74066463743C5
:101A4000009EB760184EB6684F689643FF0200D5F7
:101A50001643154FBE60FE684F689643BF0200D51F
:101A60001643114FFE607E684F689643BF0300D552
:101A700016430D4F7E603E684F689643FF0300D5C6
:101A80001643094A16605B1C0A681646DE4000D001
:101A90003FE7F8BD0010024000000140000400488C
:101AA00000080048000C004800040140006908409C
:101AB00000D001207047002A01D081617047816207
:101AC00070470000014880687047000064000020F3
:101AD000024881680278891881607047640000209C
:101AE00010B506480168102211430160032000F080
:101AF00007F800F027F8002010BD00000020024089
:101B000070B504460D4D7D202978C000FEF7E2FC3B
:101B100001460B480068FEF7DDFC00F077FC00286A
:101B200009D1042C07D200222146401E00F02AF8D9
:101B300000206C6070BD012070BD000064000020BA
:101B40007000002008B508488169012211438161B5
:101B5000816911400091C26901040A43C261C069F0
:101B60000840009008BD000000100240002805DB7E
:101B7000C106C90E01208840014908607047000075
:101B800000E100E010B502F0EBF810BDF8B5054635
:101B90000068354CC00352D5E0690026C00007D468
:101BA000E16920040143E161E169014001260091FE
:101BB0002E480168C90510D40168821511430160DF
:101BC000FFF780FF074604E0FFF77CFFC01B642897
:101BD00024D826480068C005F6D5206A03273F02AE
:101BE000384020D06968394081421CD0206A226A7E
:101BF000B843012109040A432262226A8A4322620D
:101C00002062C0070FD0FFF75DFF009008E0FFF7EC
:101C100059FF0099411A1648814201D90320F8BDA5
:101C2000206A8007F3D5206A6968B84308432062B8
:101C3000002E04D0E169012000078143E16128788A
:101C4000C00705D0206BA968800880000843206386
:101C50002878800605D5206B10218843E968084361
:101C600020630020F8BD000000100240007000401A
:101C700088130000F8B50F46060059D03A4D286881
:101C8000C007C00FB84209D2286840084000384356
:101C900028602868C007C00FB84249D13068334C6B
:101CA00081070CD5400704D5606807210902084365
:101CB00060606068F0218843B168084360603078F4
:101CC000C00726D0706801280ED0216802280ED0E7
:101CD000890700292CDA616889088900014361605D
:101CE000FFF7F0FE00900DE021688903F1E789011C
:101CF000EFE7FFF7E7FE0099411A1D48814201D93D
:101D00000320F8BD60680C21084071688900884292
:101D1000EFD12868C007C00FB8420BD92868400827
:101D20004000384328602868C007C00FB84201D07F
:101D30000120F8BD3078400706D560680721090208
:101D40008843F1680843606000F028F86168094A38
:101D50000906090F515CC840074908600320FFF7D6
:101D6000CFFE0020F8BD000000200240001002401D
:101D700088130000FAB700087000002004480549E5
:101D800000684968044A4905490F515CC8407047DA
:101D900070000020001002400AB8000810B5104A78
:101DA00051680C200B4603400E48042B17D0082B1B
:101DB00015D18B020C4C1B0FE45CD26A0A4B120744
:101DC000120F10339A5CC90305D500231946FEF79C
:101DD00053FA214601E02046044901F09BFF10BD63
:101DE0000010024000127A00DAB7000800093D0036
:101DF000FEB5040070D02078DC4DC0074AD068687A
:101E00000007800F012807D068680007800F0228AC
:101E100009D16868C00306D5286880033AD5606890
:101E20000028E7D036E06168012914D00120800441
:101E3000002901D0052914D02A68012109048A4308
:101E40002A602968814329606068002816D0FFF75E
:101E500039FE06460EE0286801210904084328607F
:101E6000F2E7296801432960F5E7FFF72BFE801BA5
:101E700064286ED828688003F7D50BE0FFF722FEB0
:101E8000064604E0FFF71EFE801B6428F1D8286890
:101E90008003F7D420780126800700283CDA6868A0
:101EA0000007800F07D068680007800F022809D15B
:101EB0006868C00306D42868800716D5E068012842
:101EC0000AD112E0E0680028286816D03043286064
:101ED000FFF7F8FD074605E043E1FFF7F3FDC01B00
:101EE0000228C6D828688007F7D52868F8218843D3
:101EF0002169C900084328600EE0400840002860BE
:101F0000FFF7E0FD074604E0FFF7DCFDC01B0228F9
:101F1000AFD828688007F7D42078000722D5E06979
:101F20000028686A0ED030436862FFF7CBFD074691
:101F300004E0FFF7C7FDC01B02289AD8686A800733
:101F4000F7D50FE0400840006862FFF7BBFD074689
:101F500005E09DE0FFF7B6FDC01B022889D8686A3E
:101F60008007F7D4207804274007002860DA002093
:101F70000190E869C00008D4E969B8060143E96145
:101F8000E969014001200091019079480168C90583
:101F900011D40168821511430160FFF793FD009091
:101FA00005E0FFF78FFD0099401A642870D870484B
:101FB0000068C005F5D5A06801280AD0002801D026
:101FC000052810D0286A400840002862286AB843D3
:101FD00001E0286A30432862A068002812D0FFF789
:101FE00071FD00900AE0286A38432862F1E7FFF7A4
:101FF00069FD0099411A5F48814249D8286A8007E3
:10200000F5D50DE0FFF75EFD009006E0FFF75AFD05
:102010000099411A574881423AD8286A8007F5D476
:102020000198002804D0E969012000078143E96193
:102030002078C00635D5606901280CD0401D686B3A
:1020400023D038436863686B400840006863FFF73B
:1020500039FD064622E0686B38436863686B30439D
:102060006863FFF72FFD064604E0FFF72BFD801B9A
:1020700002285BD8686B8007F7D5686BF821884326
:10208000A169C900084368630BE0B8436863F4E7DB
:102090004CE0FFF717FD801B022847D8686B8007CC
:1020A000F7D4206A00285ED069680907890F0229E1
:1020B00042D0012636060228286805D0B0432860A1
:1020C000FFF700FD044633E0B0432860FFF7FAFC59
:1020D000074604E0FFF7F6FCC01B022826D8286854
:1020E0008001F7D4E86AE16A000900010843E86268
:1020F000616AA06A084369683D221204914308435B
:102100006860286830432860FFF7DCFC044604E080
:10211000FFF7D8FC001B022808D828688001F7D5F3
:1021200021E0FFF7CFFC001B022801D90320FEBDF0
:1021300028688001F5D416E00128F8D06868E96ABB
:1021400001221204636A02409A420AD10907E26A34
:10215000090F914205D10F2189040840A16A8842E4
:1021600001D00120FEBD0020FEBD00000010024095
:10217000007000408813000070474030407F704777
:10218000F8B504000CD0606A002500280AD025614B
:10219000656126464036A562707F002808D00BE0B6
:1021A0000120F8BD6168C81FFD38F2D0E561F0E795
:1021B0003577204600F05CF80222727720680168CB
:1021C0004023994301600723E1681B02994201D92A
:1021D000002001E0012000030F273F02B94202D096
:1021E000994200D0A562FF23616805331940212779
:1021F000A368BF023B40194323691340227D194362
:10220000D207D20F11430123A2695B021A40114386
:10221000E26938231A401143226A80231A4011438D
:10222000A26A9B011A40114322681160A16904222D
:10223000090C1140626A10231A401143626B082393
:102240001A4011430F23E2681B021A401143012276
:10225000120310400143206841602068C169521098
:102260009143C1612566012070770020F8BD000010
:1022700070B586B0064614216846FEF729F91C4958
:102280003068884231D11B498A69801402438A61CF
:102290008A69024005924A69400102434A614969DC
:1022A000002501400591B0200090022001900320FC
:1022B00003900920029569460495C006FFF724FBA8
:1022C0000E4C0D4820601020A5606060256165619E
:1022D000A5618020E561E0602046FFF7F7F900285E
:1022E00001D0FFF7CFF87465666206B070BD0000DC
:1022F0000030014000100240300002407001002018
:10230000F8B5064604464036307F0027012807D03E
:1023100001203077707F0025012803D002276AE072
:102320000220F8BD00294DD0002A4BD00320707741
:102330002566A163A287E28725642565E564B580EB
:10234000F5800122D203A1685010914208D1216882
:102350000A6840239A430A6021680A6802430A60B7
:10236000626D2649D162626D25499162626D25498F
:102370001163616D4D6321684A6882434A60072298
:10238000E1681202914210D8616D4A690121890207
:102390008A420AD1E18FC90721684A6814D00243F2
:1023A0004A60E08F4008401CE087E38F2268A16B01
:1023B0000C32606DFFF7B4F900280AD0206E1021AE
:1023C00008432066012716E082434A60E08F4008F8
:1023D000EAE720680168490603D4016840221143F6
:1023E00001602068416820221143416020684168F3
:1023F00002221143416035773846F8BDE3320008C8
:10240000ED320008C132000870477047094910B525
:10241000401E884201D9012010BD074C6061032194
:10242000081F01F09DFC0020A06107202061002012
:1024300010BD0000FFFFFF0000E000E070477047A4
:1024400070B5040005D025462035687F002802D0ED
:1024500006E0012070BD00202877204600F014F827
:1024600002206877211D206801F0D2F80120403455
:10247000A071A877E87720706070A070E07020717C
:1024800060716877002070BD08B50068094988420E
:102490000FD10948C26910210A43C261C0690022F4
:1024A0000840009011461120FFF76CFB1120FFF748
:1024B0005DFB08BD001000400010024001462031C5
:1024C0004A7F012A01D00120704702224A77026820
:1024D000D36801210B43D3600068094A904205D0BC
:1024E000084A904202D0084A904204D182685207BA
:1024F000520F062A02D002680A4302600020704789
:10250000002C014000040040004001407047F8B535
:1025100004460068C66805690027A907002913DA80
:10252000B10711D5F91E016101202077206880696B
:102530008007204602D0FFF7E9FF04E000F07BF8B7
:10254000204600F079F82777680716D5700714D56C
:1025500004202168C0430861022020772068806938
:102560008005800F204602D0FFF7D0FF04E000F086
:1025700062F8204600F060F82777280715D5300765
:1025800013D508202168C043086104202077206803
:10259000C0698007204602D0FFF7B8FF04E000F0D2
:1025A0004AF8204600F048F82777E80616D5F006E6
:1025B00014D510202168C0430861082020772068C6
:1025C000C0698005800F204602D0FFF79FFF04E01E
:1025D00000F031F8204600F02FF82777E80708D000
:1025E000F00706D001202168C0430861204600F0B2
:1025F00025F8280608D5300606D580202168C04376
:1026000008612046FFF71AFF680608D5700606D550
:1026100040202168C0430861204600F021F8A80648
:1026200008D5B00606D520202168C04308612046A1
:10263000FFF705FFF8BD7047704700000649884264
:1026400009D106494888421C4A80022803D3002049
:102650004880012008707047B40100205800002015
:102660007047704770470000F8B502680446D069AB
:10267000116893689E4D06462E4025468035002EF3
:1026800071D09C4FDE07F60F0F4037437ED0C7074F
:1026900006D0CF0504D5012717626A683A436A60FD
:1026A000820708D5DA0706D0276802223A626A68EC
:1026B00004273A436A60420708D5DA0706D0236840
:1026C00004221A626A6802231A436A60020709D563
:1026D00020220A40324305D0236808221A626B6820
:1026E00013436B60020509D54A0107D5012223680F
:1026F000D2021A626B68202213436B606A68002A58
:1027000039D0800606D5880604D5A16E002901D0EF
:1027100020468847686821688968490602D42821CC
:1027200008422DD0204601F091F8216888684006C3
:1027300022D5EFF31080012282F310888A684023AB
:102740009A438A6080F31088606F002814D06A4929
:102750004163606FFEF748FF00280CD0606F416B4B
:1027600008E000E012E0830610D58B060ED5A16EBE
:10277000A3E020468847F8BD2046FFF773FFF8BD69
:102780002046FFF76FFF00206860F8BD236E012B25
:102790007ED1C3067CD5CB067AD51023136222687E
:1027A0009068264640064036002848DA616F08687F
:1027B00040680004000CE8D0378B8742E5D970836D
:1027C0008869202834D0EFF31080012181F310882C
:1027D00011681F01B943116080F31088EFF3108076
:1027E000012181F3108821688A68520852008A60AA
:1027F00080F31088EFF31080012181F310882168A5
:102800008A684027BA438A6080F3108820202860B5
:1028100000202066EFF31080012181F310882168E9
:102820000A689A430A6080F31088606FFEF7BCFE66
:1028300002206066308B718B401A81B234E0308B9D
:10284000718B401A81B2708B00289ED000299CD0D9
:10285000EFF31080012686F310881668FF272137D2
:10286000BE43166080F31088EFF31080012282F3DC
:1028700010882268966876087600966080F3108843
:102880002020286000202066A066EFF3108000E082
:102890000EE0012282F31088226815689D431560BE
:1028A00080F31088022060662046FFF7DAFEF8BD4C
:1028B000030606D50B0604D5E16E002900D058E7C3
:1028C000F8BD4006FCD54806FAD52046EFF3108146
:1028D000012383F31088146840239C43146081F320
:1028E00010882021C1670021C16600F015F9F8BDEC
:1028F0000F080000200100043938000810B504005A
:1029000003D0E06F002802D007E0012010BD0021B5
:1029100078200155204600F027F82420E067206841
:102920000168490849000160606A002802D0204619
:1029300000F0BAFE204601F087F80128E6D02068B2
:1029400041680122D20291434160206881680822D7
:102950009143816020680168012211430160204693
:1029600000F008FF10BD000010B586B00446142129
:102970006846FDF7ADFD17492068884227D1164803
:102980008269012189030A43826182690A400592B2
:102990004269C9000A43426140690840059003202A
:1029A000400200900220019000200290032003903A
:1029B0000120049009206946C006FEF7A5FF002209
:1029C00011461B20FFF7DEF81B20FFF7CFF806B0FB
:1029D00010BD0000003801400010024070B5802397
:1029E0001B58202B01D0022070BD00290BD0002ADB
:1029F00009D0012483682403A34206D10369002B74
:102A000003D1CB0701D0012070BD00230366046809
:102A100063681B020BD5EFF31083012585F3108843
:102A200025680126B6063543256083F3108801F03A
:102A3000A3F870BD064910B5884208D10548007852
:102A400002F08CFC012203490148FFF7C7FF10BDCB
:102A5000FC01002059000020FFB50446C06F83B080
:102A600017460D46202802D0022007B0F0BD002DE9
:102A70000BD0002F09D00120A1680003814206D1AC
:102A80002069002803D1E80701D00120EDE70021EB
:102A9000842001512120E067FFF714F826464036D4
:102AA0000190378277820120A1680003814202D120
:102AB0002069002802D02F46002511E000270FE0F2
:102AC00000228021204601F0AFF8002815D1002F08
:102AD00017D02168387808857F1C708A401E708264
:102AE000708A019B002806980090E9D100224021BD
:102AF000204601F099F800280AD02020E067032042
:102B0000B3E728882168C005C00D0885AD1CE4E73F
:102B10002020E0670020A8E77047FEE700B54021CD
:102B2000044802F0D1FB0106090E02D0014800F072
:102B300083FB00BDCA00002070B500F097F80F2895
:102B40002CD006110121642202254648464C330050
:102B500001F0F8F80B2407142532414C576C5F78CC
:102B60002400A289002A19D02388827A9B1A9BB25A
:102B70002380934200D82280C1720BE0A1890029F2
:102B80000CD02188837AC91889B22180642900D3A6
:102B90002280C5722078002101F004F970BDA2895D
:102BA000002AFBD06388827A9B1A9BB2638093428F
:102BB00000D86280C1720BE0A1890029EED0618843
:102BC000837AC91889B26180642900D36280C57292
:102BD000A0780121E0E7A0890028DFD060890028E3
:102BE00002D00020608170BD0120FBE7A089002891
:102BF000F9D02089002802D00020208170BD01205A
:102C0000FBE7A089002802D00020A08120E001205D
:102C1000FBE7A0890028F1D0A07B401C8007800F33
:102C2000E08102F0FDFD01F0B7F970BDA089002838
:102C3000FBD0208A0521401CFDF74CFC218202F0CC
:102C40004FFE70BDA08A002807D00020A082A08976
:102C5000002804D002F06EFF70BD0120F6E702F0FC
:102C600049FF70BD0000002074000020F8B5002569
:102C70000421A848FEF71AFF01270024A64E0028C9
:102C8000307802D0012816D01AE0002802D137701F
:102C9000B481F481B089FF21401C80B29131B081B0
:102CA00088420DD3F089401C80B2F081502807D1B2
:102CB000F481122504E0B089322800D9112534703E
:102CC00008219448FEF7F2FE0028707802D001280F
:102CD00018D01CE0002802D17770B481F481B0894B
:102CE000FF21401C80B29131B08188420FD3F0891E
:102CF000401C80B2F081502801D0002507E0F4810B
:102D0000222504E0B089322800D9212574701021D1
:102D10008048FEF7CBFE0028B07802D0012818D0FA
:102D20001CE0002802D1B770B481F481B089FF2182
:102D3000401C80B29131B08188420FD3F089401C91
:102D400080B2F081502801D0002507E0F4813225BF
:102D500004E0B089322800D93125B47020216D48B3
:102D6000FEF7A4FE0028F07802D0012818D01CE05D
:102D7000002802D1F770B481F481B089FF21401C92
:102D800080B29131B08188420FD3F089401C80B26B
:102D9000F081502801D0002507E0F481422504E0AD
:102DA000B089322800D94125F470FF2101315948FA
:102DB000FEF77CFE0028307902D0012809D00DE012
:102DC000002802D13771B481F481B089401CB081F0
:102DD00004E0B089322800D95125347180214D4852
:102DE000FEF764FE0028707902D0012809D00DE0BA
:102DF000002802D17771B481F481B089401CB08180
:102E000004E0B089322800D961257471012149029A
:102E10004048FEF74BFE0028B07902D0012809D0C7
:102E20000DE0002802D1B771B481F481B089401C53
:102E3000B08104E0B089322800D97125B47109202D
:102E40000221C006FEF732FE0028F07902D00128E8
:102E500009D00DE0002802D1F771B481F481B08966
:102E6000401CB08104E0B089322800D98125F4717A
:102E700009200421C006FEF719FE0028307A02D08E
:102E8000012809D00DE0002802D13772B481F48105
:102E9000B089401CB08104E0B089322800D9912566
:102EA000347201211B48FEF701FE0028707A02D01F
:102EB000012808D02CE0002801D17772B481B089B4
:102EC000401CB08124E0B0897D21090188421BD3D8
:102ED000124F7472F88A00280FD00020F882B88A46
:102EE00000280CD00020B88200F0F2FEB481B8892E
:102EF000002806D002F01EFE09E00120EEE70120C6
:102F0000F1E702F0F7FD02E0322800D9A125747242
:102F10002846F8BD0004004800000020740000208E
:102F200070B51D4614464A19521ED3B20219521EDC
:102F3000D2B2C9B2C0B2049E02F0B6FA6C436004C9
:102F4000020C31460448FFF7DBF90348FFF715F997
:102F50000328FAD070BD00000C010020FFB583B03B
:102F60000C4616460E990C9A0D988E4257D20F9D1C
:102F7000069BAB4253D2B3188B4200D98A1B0699E9
:102F800095B20A180F998A4202D908460699401A42
:102F900087B2002D43D0002F41D068000190FDF78B
:102FA00003F90090E019401EC3B20398E1B2401942
:102FB000401EC2B20398C0B202F076FA002429E0A3
:102FC0000698001980B286460020014613E0721868
:102FD0000F9B92B25A4372445300109A9C46D35CA2
:102FE000009A491C1354109A401C62445378009A6A
:102FF00089B21354401CA942E9D30198009982B2C6
:103000000848FFF77DF90748FFF7B7F80328FAD01B
:10301000641CA4B2BC42D3D30098FDF7F6F807B005
:10302000F0BD00000C010020F8B51F461646CA1975
:10303000521ED3B28219521ED2B2C9B2C0B202F02D
:1030400033FA70000090FDF7AFF8054600241FE04A
:1030500000220EE010467843001906994000530004
:10306000095CE95406990818E9184078521C487020
:1030700092B2B242EED30098294682B20748FFF7D7
:103080003FF90648FFF779F80328FAD0641CA4B288
:10309000BC42DDD32846FDF7B8F8F8BD0C0100208E
:1030A00008B5084841690122114341614069104057
:1030B0000022009011460A20FEF764FD0A20FEF768
:1030C00055FD08BD00100240F0B587B014216846D8
:1030D000FDF7FEF919484269012149040A4342619A
:1030E00042690A400592426949000A4342614069C7
:1030F000FF26084009274136FF0605900022314689
:103100003846FEF7D8FC0620002401256A4631C265
:1031100069463846FEF7F8FB029469463846009641
:1031200001950394FEF7F0FB05486A4631C26946F3
:103130000448FEF7E9FB07B0F0BD000000100240B4
:10314000BD0300000004004810B511480F4901609C
:10315000FF210531416000210722816012020161D7
:10316000C2604161C16101220162920441628261D7
:1031700081620722C262016308214163FFF700F800
:10318000002801D0FEF77EF910BD0000003001409C
:103190000C01002010B50948074901600849416049
:1031A000002111228160C2608161FFF749F9002886
:1031B00001D0FEF767F910BD00100040B4010020F7
:1031C0000F27000010B50C480A490160E1214902AF
:1031D000416000218160C16001618161C1610C2297
:1031E000016242614162FFF789FB002801D0FEF7CE
:1031F00049F910BD00380140FC010020FEE7000045
:103200000A48322101804180002101814181818170
:103210000321C18104210182054A01219172C28AE0
:1032200082820183FF21F531C16170477400002063
:10323000000000207047000041880379427849BAB5
:1032400009041B02407919430143012A02D1080CE9
:1032500001494882704700007400002010B50648FC
:1032600001684068054AD0820548814202D000F0DA
:1032700009F8F4E710BD000000FC0008740000200D
:103280007856341270B50C4CFEF72AFBFEF774F931
:103290000A4D00232A4621460220FEF7E3FA0028C1
:1032A000F7D100221346211D0220FEF7DBFA002889
:1032B000F7D1FEF7CDFA70BD00FC00087856341245
:1032C00010B5406A01684A68920892004A60016E2F
:1032D00010221143016601225D210A54FEF74CFFC2
:1032E00010BD10B5406AFFF790F810BD38B505461F
:1032F000446AFEF7E7FB024628680068800625D48A
:10330000206841682025A943416020684168022364
:10331000994341606421204600F01CF8002802D047
:10332000206E28432066A0680021002803D1206871
:10333000C26880680090E18701215D200155206E00
:10334000002803D02046FEF717FF38BD2046FFF7C0
:103350005BF838BDF8B50F460B46154600920321C1
:1033600004460022C90200F01BF82026002812D1D2
:103370003B46002280212046009500F07DF8002881
:1033800009D103213B46002249022046009500F066
:1033900007F8002803D0206E304320660320F8BDD4
:1033A000FFB585B00E460446002069460E9D1746BF
:1033B0000871FEF787FB411B0898451AFEF782FB50
:1033C0000390206823210C3002902A48006848436B
:1033D000000D684346E003204002864206D1002FDC
:1033E00004D1029801786846017100790898401C60
:1033F00039D0FEF767FB0399401AA84205D2002D89
:1034000003D0009800282BD02BE020684168E022F0
:10341000914341606068C11FFD390CD10121A06852
:10342000C903884202D04911884204D1206801684A
:103430004022914301600120A16A4003814207D1EB
:1034400021680A6882430A6021680A6802430A60A8
:1034500001204034607700202077032009B0F0BDC0
:103460000025401E0090206880683040B842B2D1EC
:103470000020F3E770000020FFB581B01E4604462F
:103480000A9DFEF71FFB401B351AFEF71BFB074684
:10349000264800684001000D684339E0701C38D0B0
:1034A000FEF710FBC01BA84205D2002D03D00098E8
:1034B00000282BD02BE020684168E0229143416036
:1034C0006068C11FFD390CD10121A068C903884281
:1034D00002D04911884204D12068016840229143FA
:1034E00001600120A16A4003814207D121680A6876
:1034F00082430A6021680A6802430A60012040345E
:10350000607700202077032005B0F0BD0025401E25
:103510000090206881680298884305D000210398B4
:103520008142BBD10020EFE70121F8E770000020C5
:10353000704710B5FEF7CCFA10BD70B594B03021CD
:103540006846FCF7C5FF00240E94139410200994DC
:10355000022504900D940F940720129401260095E3
:1035600080040C94109403960A90119408950B947F
:103570006846FEF73DFC002801D072B6FEE7072042
:103580000C900E9401210D950F940CA8FEF772FB80
:10359000002801D072B6FEE710A810961294FEF72C
:1035A000F5FA002801D072B6FEE714B070BD70477E
:1035B000FEB50E460746A02A00D39F221546802B53
:1035C00001D37F2400E01C46E3B2EAB2F1B2F8B2C4
:1035D00001F06AFF0898ED1B000A01900898C0B23C
:1035E0000090A01B401C6D1C454305E0019802F0B3
:1035F00081FC009802F07EFC6D1EF7D2FEBD00003B
:1036000010B50248FEF783FF10BD0000B401002092
:10361000F0B502681E4B1F4C984201D0A04203D166
:103620007025AA434D682A431B4D1C4E1C4F9842DF
:103630000AD0A04208D01B4CA04205D0A84203D01B
:10364000B04201D0B84205D114460322120294437D
:10365000CA6822438024A2434C69224302608A68DC
:10366000C2620A688262984205D0A84203D0B04282
:1036700001D0B84201D109690163012141610169A9
:10368000C90703D00169490849000161F0BD000084
:10369000002C014000040040004001400044014073
:1036A000004801400020004010B5818C090707D573
:1036B00001684A680123DB039A43436B1A434A605B
:1036C000818CC90707D001684A6801235B049A43CB
:1036D000836A1A434A60818C890707D501684A6862
:1036E00001231B049A43C36A1A434A60818C490729
:1036F00007D501684A6801239B049A43036B1A4368
:103700004A60818CC90607D50268916801231B03B2
:103710009943836B19439160818C890607D50168B1
:103720008A6801235B039A43C36B1A438A60818CC6
:10373000490612D503685A6801210905046C8A43B9
:1037400022435A60026C8A4207D1026851680323FF
:103750005B059943436C19435160818C090607D579
:1037600001684A680123DB04806C9A4302434A6083
:1037700010BD0000FEB507460025803704467D6079
:10378000FEF7A0F901902068006826460007603621
:10379000002819DA27480090012100224905204617
:1037A000019B00F041FA00280ED0EFF310800121B8
:1037B00081F3108821680A6880239A430A6080F3A5
:1037C00010882020E06729E020680068400728D59D
:1037D000184800900121002289052046019B00F035
:1037E00023FA00281DD0EFF31080012181F3108807
:1037F00021680A68FF2321339A430A6080F3108806
:10380000EFF31080012181F3108821688A68520843
:1038100052008A6080F310882020386035760320BB
:10382000FEBD2020E067386025666566357600209D
:10383000FEBD0000FFFFFF0110B5406A00220146F7
:1038400040314A834A82FEF70DFF10BD10B5EFF3F9
:103850001081012282F3108802681368FF2421344A
:10386000A343136081F31088EFF31081012282F3E8
:103870001088026893685B085B00936081F310888E
:10388000016E01290BD1EFF31081012282F3108820
:10389000026813681024A343136081F31088202268
:1038A00080210A5000210166816610BD70B5014675
:1038B0004031034680338C8B1D680268222D04D072
:1038C000906908210843906170BD928C456D22403B
:1038D0002A80426D921C42654A8B521E4A834A8B53
:1038E000002AF1D1EFF31082012484F310880468D8
:1038F0002568FF262136B543256082F31088EFF353
:103900001082012484F310880468A5686D086D0096
:10391000A56082F3108820221A6000238366436624
:103920000468626812020BD5EFF31082012585F35B
:10393000108825680126B606B543256082F31088F5
:10394000026E012A02D0FFF775F870BD0366EFF32F
:103950001082012383F310880468256810239D4397
:10396000256082F310880268D469E443E40600D439
:103970001362098BFEF775FE70BD70B501464031CC
:10398000034680338C8B1D680268222D04D0906919
:1039900008210843906170BD928C2240446D2270D2
:1039A000426D521C42654A8B521E4A834A8B002A42
:1039B000F1D1EFF31082012484F3108804682568A4
:1039C000FF262136B543256082F31088EFF310827D
:1039D000012484F310880468A5686D086D00A56053
:1039E00082F3108820221A600023836643660468ED
:1039F000626812020BD5EFF31082012585F310885F
:103A000025680126B606B543256082F31088026E4C
:103A1000012A02D0FFF70EF870BD0366EFF31082A3
:103A2000012383F310880468256810239D432560D3
:103A300082F310880268D469E443E40600D4136278
:103A4000098BFEF70EFE70BD70B5044680682169D3
:103A5000E26908436169002511432268084311683F
:103A60003F4B19400143116021684868032212034B
:103A70009043E26810434860A169206A08432168C6
:103A80008A680B231B029A4302438A6035492068E7
:103A9000884210D13448006B8007800F0ED0012877
:103AA00005D0022805D003280AD1022109E004210B
:103AB00007E0082105E02D49884201D1002100E0FE
:103AC00010210120E369C003294A2A4E834222D1F2
:103AD000002906D0022907D0042907D0082935D1AA
:103AE00008E0FEF74BF903E0104603E0FEF756F955
:103AF000002830D0616840004A088018FCF7EAFCD2
:103B000001461039B14221D81A49491C0140000729
:103B1000400F08431DE0002906D0022907D00429E0
:103B200007D0082912D108E0FEF728F903E0104673
:103B300003E0FEF733F900280DD061684A08101839
:103B4000FCF7C8FC01461039B14201D9012502E059
:103B500080B22168C8600020A066E066284670BD7B
:103B6000F369FFFF003801400010024000440040AC
:103B700000127A00EFFF000030B541650146403188
:103B80000A834A8300238366012285681203FF2487
:103B9000954204D10569002D2ED1204C2CE0002D3A
:103BA00026D08B83014680314B6022230B60EFF3DC
:103BB0001081012383F3108803689C6801252C433E
:103BC0009C6081F310888168914202D101690029CB
:103BD00014D0134981660169002911D0EFF31081D7
:103BE000012282F3108800680268FF2321330FE06E
:103BF0000569002D00D07F248C83D3E709498166B5
:103C0000EFF31081012282F31088006802682023FC
:103C10001A43026081F31088002030BDFF010000CC
:103C20007B390008AD380008FFB5064680360546EA
:103C300081B00F460446603534E00A98401C31D00C
:103C4000FDF740FF0499411A0A98814218D80028CC
:103C500016D020680168490724D5802F22D0402F34
:103C600020D0C169C94309070CD408270762204640
:103C7000FFF7ECFD776000202876012005B0F0BD4D
:103C80000320FBE7C069C04300050BD40120216875
:103C9000C00208622046FFF7D9FD20207060002096
:103CA0002876EDE72068C1693846884305D00021B1
:103CB00003988142C1D00020E0E70121F8E700002D
:103CC00010B50248FEF7D0FC10BD0000FC0100203A
:103CD00070B50D4CFDF704FEFDF74EFC0B4D0023B7
:103CE0002A4621460220FDF7BDFD0028F7D1084DE8
:103CF0000023EA8A211D0220FDF7B4FD0028F7D138
:103D0000FDF7A6FD70BD000000FC000878563412D7
:103D100074000020F8B5040C8BB2264682B25E43D4
:103D20000D0C1046370C5843360480190021794198
:103D300016466E43370C36048019794126466E4389
:103D40008919F8BD30B47446641E2578641CAB42F2
:103D500000D21D46635D5B00E31830BC18470000CD
:103D60008307FF22DB0E9A408907090E994000283D
:103D700008DB830809489B001B1818689043084318
:103D8000186070470007000F0838830804489B003C
:103D90001B18D86990430843D861704700E400E0DD
:103DA00000ED00E0F0B505460E46401C41086808ED
:103DB0004000401889B0C7B2404C2A46A77040A1C5
:103DC00005A8FCF7DBFA642D01D33EA110E00A2D13
:103DD00001D33CA108E0002069468875487539A1E7
:103DE00005A8FCF74BFB38A105A8FCF747FB36A15B
:103DF00005A8FCF743FB69086D1C49006A088D188B
:103E000032483349AD1C002E2DD0012E29D10E464B
:103E10000191009005AB78222C21582001F02BFB5A
:103E20006078002814D0C21D49233C21801C0096D4
:103E3000FFF7BEFB0521274A962002AB019107C37D
:103E400006200090627800233F21901CFFF786F83F
:103E50002148009028460B2304223C21FFF760F8FC
:103E6000677009B0F0BD0E460191009005AB782255
:103E70001121582001F0FFFA2078002814D0C21D2B
:103E80002B232021801C0096FFF792FB0521134A6B
:103E9000962002AB019107C30620009022780023F0
:103EA0002321901CFFF75AF80B48009028460B235B
:103EB00004222021FFF734F82770D2E710000020F9
:103EC000256400002500000020000000FFFF000026
:103ED0007F860000C26D00086E660008E667000875
:103EE000FFB50A460F32D3B2024683B00F32D2B2C8
:103EF000C9B2C0B20C9F01F0D7FA002505983E78F0
:103F0000000A019006980024000A7F1C0090F00728
:103F100005D00198C0B201F0EDFF059808E00B490B
:103F20000698884207D00098C0B201F0E3FF0698D7
:103F3000C0B201F0DFFF641C7608E4B2082CE6D3BF
:103F40006D1CEDB2182DD9D307B0F0BDFFFF0000F6
:103F500038B50023DB436A460D4C13806070080EB1
:103F6000A070080CE070080A207161710521601CC6
:103F7000FDF720FA6A4610887D23010AA171E071DD
:103F8000DB000C2221460348FEF766FD38BD000029
:103F90001C000020FC010020F8B5284C28482146D0
:103FA000E3894A880988002B06D0012B0CD0022B0C
:103FB00012D0032B18D01FE00A2383720A2900D2E3
:103FC00023800A2A17D317E005238372052900D21C
:103FD0002380052A0FD30FE002238372022900D227
:103FE0002380022A07D307E001238372002900D12E
:103FF0002380002A00D16380857A27882946781B90
:10400000FCF772FA009066882946701BFCF76CFA80
:10401000009968436943491989B240192180608039
:10402000B94203D0C8B20021FFF7BCFE6088B0429D
:1040300003D0C0B20121FFF7B5FEF8BD7400002027
:1040400000000020FDF74CFDFFF777FAFFF73CF882
:10405000FFF726F8FFF778F8FFF7B4F8FFF79AF8BC
:104060001748FEF72BFA012216491748FEF7B6FC4F
:10407000FFF7F4F8FFF7C4F801F0B2FA01F03AFDE7
:1040800000210120FFF764FF0A20FDF77FFBFEF708
:1040900045FD0C4C0025641EFDF714FD6168884247
:1040A00004D0FDF70FFD6060FEF746FD2078012883
:1040B00002D1257000F00AF8FEF730FDECE70000B1
:1040C000B401002059000020FC010020F0B5FF4899
:1040D0008DB08289018A0691408AFD4D0790012AA0
:1040E00006D0002028806880A880E8802881FCE332
:1040F0000246F6480A2104884088012A06D0022A8E
:1041000076D0032A75D0042A74D1EFE3069A1300FF
:10411000FFF718FE05FE71FDFC047000401EFCF761
:104120009EFEEC4AEC4B02910390FCF7A3FE0022AA
:10413000EA4BFCF7FBFBFCF74DFE80B20090E84A2F
:10414000E84B02990398FCF795FE0022E64BFCF73A
:10415000EDFBFCF73FFE81B2601E0191FCF77FFE94
:10416000059104900C46089001990098081AFCF7F4
:1041700076FE0022DD4BFCF709FC2346089AFCF78B
:1041800079FE04460E460098FCF771FE0022D84BDB
:10419000FCF7CCFB22463346FCF7C8FBFCF71AFEC3
:1041A00028800746D34AD44B02990398FCF762FE55
:1041B0000022D24BFCF7D2FBFCF70CFE86B2D04AB1
:1041C000D04B02990398FCF755FE0022CE4BFCF72A
:1041D000C5FBFCF7FFFD82B20599049C901B03917F
:1041E000FCF73DFE0022C14BFCF7D0FB039BBAE17C
:1041F00010E1DEE2CBE1401EFCF731FE05910290BA
:10420000B44AB54B03910190FCF734FE0022B34B46
:10421000FCF78CFBFCF7DEFD81B20091B04AB14B9C
:1042200003990198FCF726FE0022AF4BFCF77EFBBA
:10423000FCF7D0FD80B20190601EFCF710FE0391E8
:1042400004460891049000990198401AFCF707FE73
:104250000022A64BFCF79AFB2246089BFCF70AFEBD
:1042600004460E460098FCF702FE0022A04BFCF725
:104270005DFB22463346FCF759FBA44AA44BFCF7EE
:10428000F9FDFCF7A7FD80B27D24E4002880A04260
:1042900000D92C80974A984B05990298FCF7EAFDC3
:1042A0000022964BFCF75AFBFCF794FD87B2944A28
:1042B000944B05990298FCF7DDFD0022924BFCF728
:1042C0004DFBFCF787FD82B2D01B049EFCF7C7FDB7
:1042D0000022864BFCF75AFB3246039BFCF7CAFDD3
:1042E000064638460191FCF7C2FD0022804BFCF7E0
:1042F0001DFB3246019BFCF719FB844A844BFCF7FB
:10430000B9FDFCF767FD80B2688002E081E10BE057
:1043100004E0A04200D96C80288848E20020288070
:1043200068807D20C00042E2401EFCF798FD694A8B
:10433000694B02910390FCF79DFD0022674BFCF74F
:10434000F5FAFCF747FD80B20090654A654B02998B
:104350000398FCF78FFD0022634BFCF7E7FAFCF7AC
:1043600039FD81B2601E0191FCF779FD0591049041
:104370000C46089001990098081AFCF770FD00227D
:104380005A4BFCF703FB2346089AFCF773FD0446DF
:104390000E460098FCF76BFD0022554BFCF7C6FA61
:1043A00022463346FCF7C2FAFCF714FD2880514A36
:1043B000514B02990398FCF75DFD00224F4BFCF72F
:1043C000CDFAFCF707FD87B24D4A4E4B0299039890
:1043D000FCF750FD00224C4BFCF7C0FAFCF7FAFC4E
:1043E00082B2D01B059E049CFCF739FD00223F4B96
:1043F000FCF7CCFA22463346FCF73CFD04460E4659
:104400003846FCF734FD0022394BFCF78FFA33466F
:104410002246C6E1069A1300FFF794FC0504BAFC95
:10442000FB05B9007AE7401EFCF719FD394A3A4B03
:1044300003910290FCF71EFD0022384BFCF776FA40
:10444000FCF7C8FC80B20090224A354B03990298D1
:10445000FCF710FD0022334BFCF768FAFCF7BAFCBE
:1044600081B2601E0191FCF7FAFC059104900C46A4
:10447000089001990098081AFCF7F1FC00221B4BE8
:10448000FCF784FA2346089AFCF7F4FC04460E462F
:104490000098FCF7ECFC0022154BFCF747FA22468B
:1044A0003346FCF743FAFCF795FC288007461E4A82
:1044B0001E4B03990298FCF7DDFC00221C4BFCF715
:1044C0004DFAFCF787FC86B21A4A35E074000020EA
:1044D0002800002065934D36D964034000404440D5
:1044E000E1830F3EF8E01B400020544000C05840DC
:1044F0000000E03FC2071F7CF0C1F73F0098724008
:104500003B4362DECE90104000948A403333333315
:104510003333F33F9E21316F67480C4000803E40AB
:10452000D964D33F00248C406748CCDB19120B4080
:1045300000848140DECE9098FE4B03990298FCF7F0
:1045400099FC0022FC4BFCF709FAFCF743FC82B211
:104550000599049C901B0291FCF781FC0022F74B0B
:10456000FCF714FA029B2246FCF784FC0446304612
:104570000191FCF77CFC0022F14BFCF7D7F92246B5
:10458000019BFCF7D3F9FCF725FC6880AF804FE373
:10459000401EFCF764FC02910590EA4AEA4B039145
:1045A0000190FCF767FC0022E84BFCF7BFF9FCF731
:1045B00011FC80B20090E64AE64B03990198FCF7A3
:1045C00059FC0022E44BFCF7B1F9FCF703FC81B283
:1045D000601E0191FCF743FC04910446099103908D
:1045E00001990098081AFCF73AFC0022D34BFCF71B
:1045F000CDF92246099BFCF73DFC04460E46009887
:10460000FCF735FC0022CE4BFCF790F922463346EE
:1046100001E0C4E150E0FCF789F9D04AD04BFCF747
:1046200029FCFCF7D7FB80B27D24E4002880A0425F
:1046300000D92C80CB4ACC4B02990598FCF71AFC88
:104640000022CA4BFCF78AF9FCF7C4FB87B2C84AC0
:10465000B84B02990598FCF70DFC0022B64BFCF70D
:104660007DF9FCF7B7FB82B2039E0499D01B03913E
:10467000FCF7F5FB0022B14BFCF788F93246039BAF
:10468000FCF7F8FB064638460191FCF7F0FB0022E8
:10469000AB4BFCF74BF93246019BFCF747F9AF4AAD
:1046A000AF4BFCF7E7FBFCF795FB68802888A0423E
:1046B00000D831E62C802FE6401EFCF7D0FBA14A43
:1046C000A14B03910290FCF7D5FB00229F4BFCF716
:1046D0002DF9FCF77FFB80B200909D4A9D4B03991A
:1046E0000298FCF7C7FB00229B4BFCF71FF9FCF775
:1046F00071FB81B2601E0191FCF7B1FB05900C4685
:104700000491089001990098081AFCF7A8FB002270
:104710008A4BFCF73BF92346089AFCF7ABFB0446AF
:104720000E460098FCF7A3FB0022854BFCF7FEF831
:1047300022463346FCF7FAF8FCF74CFB2880894AFE
:10474000894B03990298FCF795FB0022874BFCF7F5
:1047500005F9FCF73FFB87B2854A764B039902982F
:10476000FCF788FB0022744BFCF7F8F8FCF732FBEF
:1047700082B2D01B049E059CFCF771FB00226F4B9C
:10478000FCF704F922463346FCF774FB04460E4658
:104790003846FCF76CFB0022694BFCF7C7F8224651
:1047A0003346FCF7C3F8FCF715FB68800020A880AF
:1047B0003EE2069A1300FFF7C5FA05F480F3F2040F
:1047C000F100401EFCF74BFB6A4A6B4B02910390D1
:1047D000FCF750FB00225A4BFCF7A8F8FCF7FAFA5A
:1047E00080B20090654A664B02990398FCF742FB41
:1047F0000022534BFCF79AF8FCF7ECFA87B2601EE4
:10480000FCF72DFB04900591089000980991381A47
:10481000FCF725FB0022494BFCF7B8F8099B089AE6
:10482000FCF728FB04460E460098FCF720FB00220C
:10483000434BFCF77BF822463346FCF777F8FCF74E
:10484000C9FA288006464F4A4F4B02990398FCF755
:1048500011FB00224D4BFCF781F8FCF7BBFA87B245
:104860004B4A4C4B02990398FCF704FB00224A4B3D
:10487000FCF774F8FCF7AEFA82B20599049CD01BE1
:104880000291FCF7ECFA00222C4BFCF77FF8224651
:10489000029BFCF7EFFA044638460191FCF7E7FA71
:1048A0000022274BFCF742F82246019BFCF73EF81A
:1048B000FCF790FA6880AE80B9E1401EFCF7CFFAB1
:1048C000039102902B4A2C4B05910190FCF7D2FAF0
:1048D00000221B4BFCF72AF8FCF77CFA80B2009010
:1048E000264A274B0599019801E0ABE11CE1FCF752
:1048F000C1FA0022124BFCF719F8FCF76BFA87B2E9
:10490000601EFCF7ACFA09910446059104900098EA
:10491000381AFCF7A4FA0022084BFCF737F82246B5
:10492000099BFCF7A7FA04460E460098FCF79FFA8D
:10493000002237E0B733044000448F4000C05840A5
:104940000000E03F9E21316F67480C4000803E40F0
:1049500065934D36D964D33F00248C4033333333D1
:104960003333F33F6748CCDB19120B40008481409E
:10497000DECE9098BD9D21316F6708407FA540AD88
:104980005F292040721CC7711CC7F13F00106940AD
:104990000AD4FA9502B50E4000B4834048E1C3E161
:1049A0004EE0C3E1FB4BFBF7C1FF22463346FBF76A
:1049B000BDFFF94AF94BFCF75DFAFCF70BFA80B240
:1049C0007D24E4002880A04200D92C80F44AF54BD5
:1049D00003990298FCF74EFA0022F34BFBF7BEFF57
:1049E000FCF7F8F987B2F14AF14B03990298FCF70A
:1049F00041FA0022EF4BFBF7B1FFFCF7EBF982B273
:104A00000599049ED01B0291FCF729FA0022EA4B7B
:104A1000FBF7BCFF3246029BFCF72CFA06463846F1
:104A20000191FCF724FA0022DA4BFBF77FFF3246B4
:104A3000019BA1E12888A8806888F8E0A880F6E0BA
:104A4000401EFCF70CFADD4ADD4B02910390FCF7A7
:104A500011FA0022CF4BFBF769FFFCF7BBF980B2DC
:104A60000090D84AD84B02990398FCF703FA002229
:104A7000C84BFBF75BFFFCF7ADF987B2601EFCF794
:104A8000EEF904900591089000980991381AFCF706
:104A9000E6F90022C84BFBF779FF099B089AFCF75F
:104AA000E9F904460E460098FCF7E1F90022B94BFB
:104AB000FBF73CFF22463346FBF738FFFCF78AF949
:104AC0002880B74AB74B02990398FCF7D3F9002224
:104AD000B54BFBF743FFFCF77DF987B2B34AB44B04
:104AE00002990398FCF7C6F90022B24BFBF736FF98
:104AF000FCF770F982B2D01B059E049CFCF7AFF95D
:104B00000022AD4BFBF742FF22463346FCF7B2F9D9
:104B100004460E463846FCF7AAF900229D4BFBF7E7
:104B200005FF22463346E2E1069A1300FFF70AF931
:104B300005FE9EFDFC048000401EFCF790F9A34A90
:104B4000A34B03910290FCF795F90022914BFBF7E0
:104B5000EDFEFCF73FF980B200909E4A9E4B039910
:104B60000298FCF787F900228A4BFBF7DFFEFCF77F
:104B700031F987B2601EFCF772F904900591089034
:104B800000980991381AFCF76AF900228A4BFBF762
:104B9000FDFE099B089AFCF76DF904460E46009845
:104BA000FCF765F900227B4BFBF7C0FE224633463B
:104BB000FBF7BCFEFCF70EF928800746874A884BB6
:104BC00003990298FCF756F90022864BFBF7C6FEC4
:104BD000FCF700F986B27B4A834B03990298FCF7F5
:104BE00049F90022814BFBF7B9FEFCF7F3F882B2DA
:104BF0000599049C901B0291FCF731F900226E4B41
:104C0000FBF7C4FE2246029BFCF734F9044630460B
:104C10000191FCF72CF900225E4BFBF787FE224640
:104C2000019BFBF783FEFCF7D5F86880AF80E88036
:104C30006F48418901297AD0002129810189012900
:104C400076D0002068816B48A989878C68482C88B9
:104C50000126C0690290A1426BD0AC81A74269D9FC
:104C60001E21FBF737FC0146381B59E1401EFCF7BB
:104C7000F6F805910290554A554B03910190FCF7C7
:104C8000F9F80022434BFBF751FEFCF7A3F880B282
:104C90000090504A504B03990198FCF7EBF8002222
:104CA0003C4BFBF743FEFCF795F887B2601EFCF720
:104CB000D6F803910490089000980991381AFCF7EF
:104CC000CEF800223C4BFBF761FE099B089AFCF7EB
:104CD000D1F804460E460098FCF7C9F800222D4B87
:104CE000FBF724FE22463346FBF720FE2A4A2B4BD5
:104CF000FCF7C0F8FCF76EF880B27D24E400288051
:104D0000A04200D92C80354A354B05990298FCF712
:104D1000B1F80022334BFBF721FEFCF75BF887B2BA
:104D2000284A314B059906E0E8E06DE066E0EAE0EC
:104D3000EDE0FCE0EFE00298FCF79CF800222B4B42
:104D4000FBF70CFEFCF746F882B2D01B049EFCF782
:104D500086F80022184BFBF719FE3246039BFCF73E
:104D600089F8064638460191FCF781F80022094B84
:104D7000FBF7DCFD3246019BFBF7D8FD064A074BEB
:104D8000FCF778F8FCF726F880B26880A04233D8A8
:104D900050E600000000E03F333333333333F33F5A
:104DA000721CC7711CC7F13F001069400AD4FA9504
:104DB00002B50E4000B4834000C05840BD9D213173
:104DC0006F6708407FA540AD5F292040840F3EF803
:104DD000E0830F4050EB570AD4FA2140580AD4FA26
:104DE0009502F53F00F06F405F29F03F00487F409B
:104DF00074000020280000206C801BE60020288022
:104E000068807D20C00019E6401EFCF728F8FE4AA5
:104E1000FE4B02910390FCF72DF80022FC4BFBF7B0
:104E200085FDFBF7D7FF80B20090FA4AFA4B029952
:104E30000398FCF71FF80022F54BFBF777FDFBF713
:104E4000C9FF87B2601EFCF70AF80490059108902C
:104E500000980991381AFCF702F80022EF4BFBF793
:104E600095FD099B089AFCF705F804460E46009844
:104E7000FBF7FDFF0022E64BFBF758FD22463346C9
:104E8000FBF754FDFBF7A6FF2880E54AE54B0299A6
:104E90000398FBF7EFFF0022E34BFBF75FFDFBF707
:104EA00099FF87B2E14AE24B02990398FBF7E2FFD0
:104EB0000022E04BFBF752FDFBF78CFF82B2D01BC8
:104EC000059E049CFBF7CBFF0022D44BFBF75EFD55
:104ED00022463346FBF7CEFF04460E463846FBF724
:104EE000C6FF0022CA4BFBF721FD33462246FBF7E3
:104EF0001DFDFBF76FFF688000209FE52980E12002
:104F0000698080009AE5C1880A22514395E680882D
:104F10000A21484396E61E21FBF7DCFA0146E01B16
:104F2000FBF7D8FA0004000CE88100D1EE81C248FA
:104F3000018A4588A9421CD00582C08C0490A842F1
:104F400007D91E210298FBF7C5FA01460498401BB9
:104F500006E01E210298FBF7BDFA01460498281AC4
:104F6000FBF7B8FA0004B449000C488201D10846A6
:104F70004682B148818A8588A9421DD08582008DEC
:104F80000490A84207D91E210298FBF7A3FA014614
:104F90000498401B07E01E210298FBF79BFA049936
:104FA0006A1A01461046FBF795FA0004A249000C64
:104FB000088301D1084606839F48C18AC588A94253
:104FC0001DD0C582408D0490A84207D91E210298A9
:104FD000FBF780FA01460498401B07E01E21029867
:104FE000FBF778FA04996A1A01461046FBF772FA41
:104FF00000049149000C488301D1084646838E483D
:10500000818B0589A9421CD08583808D0490A8429C
:1050100006D91E210298FBF75DFA04994A1B05E0A8
:105020001E210298FBF756FA04996A1A01461046A7
:10503000FBF750FA00048049000CC88301D10846F0
:10504000C6837D48018C4589A9421CD00584C08D4A
:105050000490A84207D91E210298FBF73BFA0146AB
:105060000498401B06E01E210298FBF733FA014624
:105070000498281AFBF72EFA00046F49000C4884A4
:1050800001D1084646846C4DA74231D06B48008B55
:1050900000280ED0A74205D9E889391B814208DDD6
:1050A000381A04E0E889E11B814202DD3818A8843F
:1050B00000E0AC840798012806D0022804D0032819
:1050C00005D0042814D105E0A98C02200EE0069832
:1050D000012805D0A98C0B20FEF73AFFA98C04E02B
:1050E000A98C0B20FEF734FF00210D20FEF730FFC6
:1050F000EA8C69888A422FD05048038B002B0CD051
:105100008A4205D96B8A541A9C4206DDD11A04E002
:105110006B8A8C1A9C4200DDD118E984418A0129EE
:1051200006D0022904D0032905D0042914D105E0B2
:10513000E98C03200EE0008A012805D0E98C0A20C2
:10514000FEF706FFE98C04E0E98C0A20FEF700FF79
:1051500000210C20FEF7FCFE288DA988884224D06F
:10516000364B1A8B002A0ED0884205D92A8B441A56
:10517000944208DD801A04E02A8B0C1A944202DD66
:105180008018288500E02985588A012806D0022841
:1051900004D0032805D0042807D102E0298D04207B
:1051A00001E0298D0920FEF7D3FE688DE988884249
:1051B0001CD0224A138B002B0ED0884205D96B8B52
:1051C000441A9C4208DDC01A04E06B8B0C1A9C4206
:1051D00002DDC018688500E06985508A032801D087
:1051E000042803D1698D0820FEF7B2FEA98D288915
:1051F00081423FD0114A138B002B29D0814222D902
:10520000EB8B0C1A9C421BE0840F3EF8E0830F40AE
:105210000000E03F50EB570AD4FA214000C058404C
:10522000580AD4FA9502F53F00F06F407FA540ADD3
:105230005F29F03F00487F402800002074000020D4
:1052400006DDC81A04E0EB8B441A9C4200DDC81846
:10525000A885508A012806D0022804D0032805D04A
:10526000042807D102E0A98D052001E0A98D0E20B8
:10527000FEF76EFEE98D6889814221D0114A138BB9
:10528000002B0CD0814205D96B8C0C1A9C4206DD98
:10529000C81A04E06B8C441A9C4200DDC818E885EB
:1052A000508A012808D0022806D0032801D00428FB
:1052B00006D1E98D0F2001E0E98D0620FEF748FEBA
:1052C0000DB0F0BD74000020F3B581B00646002596
:1052D00068460570174C184F26E0684600F02EF817
:1052E0002088002803D169460978EE291CD102994B
:1052F000884204D2694609783154401C2080606895
:1053000069460978000208436060B8420CD12788DA
:105310006560781F81B22580701CFCF769F8002851
:1053200001D0BF1EB8B2FEBD00F028F80028D4D1CD
:10533000FEBD000014000020FFFFFCFF06494A8864
:105340000B889A4206D00B1DD35C0370521C90064A
:10535000800E4880704700009400002010B5064B76
:105360001A885C88511C8906890E8C4202D01C1D4B
:105370001055198010BD00009400002006480188D7
:105380004088081A4030C117890E09188909890117
:10539000401A80B27047000094000020FFB5154607
:1053A0000A460B32D3B2421D81B00024D2B2C9B238
:1053B000C0B200F079F8203D0C21E8B248430091DA
:1053C0000A4947183E5D0025300601D5049800E0E3
:1053D0000A9800F099FD7006060E6D1C062DF3DB91
:1053E0000098641C8442EDDB05B0F0BD205F00082E
:1053F000FFB515460A460D32D3B2821D81B0002496
:10540000D2B2C9B2C0B200F04FF8203D0E21E8B2CE
:10541000484300910A4947183E5D0025300601D5F2
:10542000049800E00A9800F06FFD7006060E6D1CEF
:10543000072DF3DB0098641C8442EDDB05B0F0BD62
:10544000B4610008FFB581B004461D4616190B9FD4
:105450000AE0B4420DD2009720460A9B0299FFF75A
:105460009DFFA41DA4B26D1C2A78104620385E282A
:10547000EFD905B0F0BDFFB581B004461D46161941
:105480000B9F0AE0B4420DD2009720460A9B029976
:10549000FFF7AEFFE41DA4B26D1C2A781046203839
:1054A0005E28EFD905B0F0BDF8B504461D46164696
:1054B0000F462A2000F008FD002000F01BFD2046CA
:1054C00000F018FD002000F015FD304600F012FD40
:1054D0002B2000F0F9FC002000F00CFD384600F015
:1054E00009FD002000F006FD284600F003FD2C20F9
:1054F00000F0EAFCF8BDFFB585B0054607980C46FC
:10550000401B00D5404207B20898001B00D540421E
:10551000404200B2009000200799C0438D4201D262
:10552000012100E00146039108998C4200D201203C
:1055300002900098381806B20E98000A0190E3B263
:10554000EAB2E1B2E8B2FFF7AFFF019800F0D2FC97
:105550000E98C0B200F0CEFC0798854202D10898A0
:10556000844211D07000009900B2884204DB7118A7
:105570000EB2039969188DB2B842E0DCF01906B298
:105580000298201884B2DAE709B0F0BD30B5010402
:105590000A0EC3B2D1B00020FF25694641350A5436
:1055A0000C18801C80B26370A842F8D300218023BD
:1055B000A0220846FFF778FF00242A4669460748DC
:1055C000FCF79EFE0548FCF7D8FD0328FAD0641CC2
:1055D000A4B2802CF1D351B030BD00000C010020EA
:1055E00010B5FF20F530FCF7D1F800F057FC112082
:1055F00000F06AFC7820FCF7C9F8F02000F064FCA9
:10560000D62000F061FCCB2000F074FCB12000F04B
:105610005BFC012000F06EFC042000F06BFC01201C
:1056200000F068FCB22000F04FFC052000F062FCA6
:105630003C2000F05FFC3C2000F05CFCB32000F05C
:1056400043FC052000F056FC3C2000F053FC3C20BD
:1056500000F050FC052000F04DFC3C2000F04AFC1E
:105660003C2000F047FCB42000F02EFC032000F0AA
:1056700041FC022000F03EFCC02000F025FC64202C
:1056800000F038FC042000F035FC842000F032FCEF
:10569000C12000F019FCC42000F02CFCC22000F056
:1056A00013FC0D2000F026FC002000F023FCC3209A
:1056B00000F00AFC8D2000F01DFC2A2000F01AFCEE
:1056C000C42000F001FC8D2000F014FCEE2000F05E
:1056D00011FCC52000F0F8FB012000F00BFCE020DD
:1056E00000F0F2FB082000F005FC192000F002FC9D
:1056F0001B2000F0FFFB1E2000F0FCFB3F2000F011
:10570000F9FB382000F0F6FB302000F0F3FB3220EC
:1057100000F0F0FB2E2000F0EDFB292000F0EAFB6A
:10572000302000F0E7FB382000F0E4FB002000F020
:10573000E1FB092000F0DEFB002000F0DBFB102085
:1057400000F0D8FBE12000F0BFFB072000F0D2FB07
:10575000162000F0CFFB132000F0CCFB142000F04B
:10576000C9FB362000F0C6FB2F2000F0C3FB292028
:1057700000F0C0FB2A2000F0BDFB2A2000F0BAFB9D
:10578000282000F0B7FB2F2000F0B4FB3D2000F0F4
:10579000B1FB002000F0AEFB042000F0ABFB0220C8
:1057A00000F0A8FB102000F0A5FB2A2000F08CFBE5
:1057B000002000F09FFB002000F09CFB002000F088
:1057C00099FB7F2000F096FB2B2000F07DFB002052
:1057D00000F090FB002000F08DFB002000F08AFB21
:1057E0009F2000F087FB352000F06EFB002000F0CA
:1057F00081FB3A2000F068FB052000F07BFB36209F
:1058000000F062FB602000F075FB212000F05CFBE3
:10581000292000F059FB2C2000F056FB10BD0000A1
:1058200038B52C482C4DC0892C4C00281CD00128A0
:1058300023D002283ED003283BD10C231A464A210C
:105840000A200094FDF76CFB0C231A464A212D20F8
:105850000094FDF765FB0C231A464A215020009462
:10586000FDF75EFB00951EE00C231A464A210A2034
:105870000095FDF755FB009407E00C231A464A21DA
:105880000A200094FDF74CFB00950C231A464A2190
:105890002D20FDF745FB00940C231A464A21502089
:1058A000FDF73EFB00940C231A464A217320FDF7B6
:1058B00037FB38BD0C231A464A210A200094FDF715
:1058C0002FFB0C231A464A212D200094FDF728FBBC
:1058D0000095E1E7740000209E730008C66600088A
:1058E00038B58148814D818A814C008A00292BD0AE
:1058F00000287CD001287BD002287AD0032879D0D8
:1059000004287BD10C231A465D2119200094FDF751
:1059100007FB0C231A465D214B200094FDF700FB8A
:105920000C231A466E2102200094FDF7F9FA0C238D
:105930001A466E212A200094FDF7F2FA00950C23F6
:105940006E211A46692051E0002825D001282CD06C
:10595000022854D0032862D004284FD10C231A46C1
:105960005D2119200094FDF7DBFA0C231A465D2116
:105970004B200094FDF7D4FA0C231A466E210A201E
:105980000094FDF7CDFA0C231A466E213C200094BA
:10599000FDF7C6FA009525E00C231A465D21192073
:1059A0000095FDF7BDFA009407E00C231A465D212F
:1059B00019200094FDF7B4FA00950C231A465D21D6
:1059C0004B20FDF7ADFA00940C231A466E210A20F5
:1059D000FDF7A6FA00940C231A466E213C20FDF731
:1059E0009FFA00940C236E211A46084604E02DE02D
:1059F00035E052E061E001E0FDF792FA38BD0C239A
:105A00001A465D2119200094FDF78AFA0C231A46E4
:105A10005D214B200094FDF783FA0095D4E70C2319
:105A20001A465D2119200094FDF77AFA0C231A46D4
:105A30005D214B200094FDF773FA0C231A466E216A
:105A40000A200094FDF76CFA0095C4E70C231A466F
:105A50005D2119200095FDF763FA009407E00C23FF
:105A60001A465D2119200094FDF75AFA00950C237F
:105A70001A465D214B20FDF753FA00940C231A4679
:105A80006E210220FDF74CFA00940C231A466E2179
:105A90002A20FDF745FA009451E70C231A465D21B0
:105AA00019200094FDF73CFA0C231A465D214B2087
:105AB0000094FDF735FA0095E0E70C231A465D21C6
:105AC00019200094FDF72CFA0C231A465D214B2077
:105AD0000094FDF725FA0C231A466E21022000944B
